:1000000002308A000C2A00002A3084008313000882
:10001000031918280130F800F701F70B0D28F80B29
:100020000C284A30F700F70B13281628800B0A28F3
:100030000800310EF039F7000F300805770488000A
:10004000000008142328081008000808F700080E0C
:100050000F39F80008008316081088100811831261
:1000600088100F3083160805F038880083120815B1
:1000700000000814000025207808B10008100000D6
:100080000814000025207808B00008100F308316EF
:10009000080588008312310EF700F030F705770865
:1000A0003004F8007808B000B01B31282E1C8810EE
:1000B0002E18881400000811000008102F0EB00040
:1000C0000F30B0053008B10019202F080F39B000EB
:1000D000B100192008002830A4000C30A500013020
:1000E000A6000630A7000810881008110F308316EC
:1000F000080588000810881008110F308312AA0024
:1001000004200130A3002308033C031C8F28033084
:10011000B10019200530AA000420A30A8328023068
:10012000B10019200530AA000420A3012308033CD4
:10013000031CA62824302307840083130008A8008A
:10014000AE012808AF002B20A30A96288A110A12B4
:10015000382A2B0BAC28AF284030AC00B028AC01BB
:1001600001302A02AC072C088038AD00AE012D0802
:10017000AF002B2008002908073A0319C9280B3AB9
:100180000319CE28063A0319D628023A0319DC28A7
:10019000E1280130AA00AB00A920E628AE01013019
:1001A000AF002B200230AA000420E6280130AA006C
:1001B0000230AB00A920E628AE011030AF002B20A2
:1001C000E6280130AE002908AF002B2008008E3051
:1001D000F7002608F8002508F900FA01F808031DC1
:1001E000FB287908F800F9010830F702F808031D28
:1001F000FB28F70103290310F81B0229F90DF80D5C
:10020000F703FB28F8138A110A12542A2508031948
:100210007629AD00290803197629AD070318172997
:100220007F30AD02031C7629031976291B29813002
:10023000AD07031876292D08F700F801F901FA0136
:100240002608B100B1172708B0002808AF00183001
:10025000AD00AE012F1C44292C08FA07031C3629D7
:10026000F90A031D3629F80A0319AE172B08F907F6
:10027000031C3D29F80A0319AE172A08A700A7177F
:100280002708F8070318AE17AE0DF80CF90CFA0C96
:10029000B10CB00CAF0C0310AD0B29290130F707DE
:1002A00003187629F81B5B29B10DFA0DF90DF80D2D
:1002B000F70303197629B11F6C29FA0A031D6C296B
:1002C000F90A031D6C29F80A031D6C29F80CF90CB6
:1002D000FA0CF70A031976292608AE002A08AE069A
:1002E000AE1F7429F8177A29F8137A29F701F80153
:1002F000F901FA018A110A12652A8E30F7002308E3
:10030000F7022408F9002508F800F917F70803197F
:1003100094290310F908031D9029F808031994295A
:10032000F90CF80CF70B8929A41F9B29F809F90986
:10033000F80A0319F90A8A110A126E2A2A08F80122
:1003400029020318A6292908F700B229F701083065
:10035000AB00A90DF70D2A0877020318F700F80D76
:10036000AB0BA92908002030241E3030A50023083B
:10037000F700A31FC329F709F70A7708A3002D3058
:10038000A500A41724142308A9006430AA009E2104
:100390007708A30030307807A6002308A9000A30A8
:1003A000AA009E2130307707A80030307807A700D8
:1003B0002508F700303026020319E229A414A41BF3
:1003C0002415F6292508A6002030A5003030270284
:1003D0000319EE292414A41BA414F629031D2414C4
:1003E000031DF6292608A7002030A6002419FD29A0
:1003F000A418002A2418032A062A2508A900BB20CD
:100400002608A900BB202708A900BB202808A900AE
:10041000BB208A110A12752A03081F398300003095
:1004200083169900A23098009030831298008316AA
:100430001F149F141F159F1107309C0083138312F4
:10044000A001A10183161F1383121F179F17831684
:100450009F1783121F1483161F109F141F159F15BB
:100460000030F80083121F08C73978049F006B28FA
:100470000C30A900BB200430A300FA30AA000420ED
:10048000A30B3D2A0C30A900BB201F151F19462ABB
:100490001E08FA0083161E088312A3001E08A4007B
:1004A000A6002308A500E7287A08A8007908A70075
:1004B0007808A6007708A5003530AC005E30AB00A8
:1004C0007A30AA007D30A90006297A08A6007908AA
:1004D000A5007808A4007708A3007D297808A20069
:1004E0002208A3001830A400B3292030A900BB20A3
:1004F0004330A900BB2022080C1E7C2A99003B2A0D
:02050000630096
:02400E00723FFF
:00000001FF
;PIC16F877A
;CRC=8FC0  CREATED="09-mar.-21 11:25"
