:1000000006308A00572E00000A108A100A11820753
:100010003134323433344134343435343634423488
:1000200037343834393443342A3430342334443484
:100030000C000C00CD32EE3A00013017D237F4300C
:10004000201031175039EF3665003217CE3ACD30D7
:1000500020103317D030F23273003417581061106B
:100060005910A01AAE22E33A61000C000C00623075
:1000700084008313000803194B280130F800F701AE
:10008000F70B4028F80B3F284A30F700F70B4628BB
:100090004928800B3D280800690EF039F7000F3021
:1000A0000805770488000000081456280810080086
:1000B0000808F700080E0F39F8000800831608102A
:1000C00088100811831288100F3083160805F03845
:1000D00088008312081500000814000058207808D2
:1000E000E900081000000814000058207808E80013
:1000F00008100F308316080588008312690EF70078
:10010000F030F70577086804F8007808E800E81B85
:100110006428661C88106618881400000811000006
:100120000810670EE8000F30E8056808E9004C2069
:1001300067080F39E800E9004C2008002830A800C3
:100140000C30A9000130AA000630AB00081088105E
:1001500008110F3083160805880008108810081150
:100160000F308312E20037200130A7002708033C3C
:10017000031CC2280330E9004C200530E200372080
:10018000A70AB6280230E9004C200530E2003720EB
:10019000A7012708033C031CD9282830270784001F
:1001A00083130008AC00E6012C08E7005E20A70AD4
:1001B000C9288A110A126D2E8A110A126E2E630B3B
:1001C000E228E5284030E400E628E401013062023C
:1001D000E40764088038E500E6016508E7005E2072
:1001E00008006108073A0319FF280B3A031904298C
:1001F000063A03190C29023A03191229172901306A
:10020000E200E300DF201C29E6010130E7005E2068
:100210000230E20037201C290130E2000230E30006
:10022000DF201C29E6011030E7005E201C29013088
:10023000E6006108E7005E2008000B08D4008B137D
:10024000831603178C170C1400000000831203138D
:10025000D41B8B1703170C087F390319712903135B
:10026000D40003170D080313D50003170F08031359
:10027000D6005408E100F120550803178D00031340
:10028000560803178F0003130B08D7008B13831630
:1002900003178C170C140000000083120313D71BE4
:1002A0008B1703170C0D0E0D7F39031971290313DA
:1002B000D40003170D080313D50003170F08031309
:1002C000D6005408E100F120550803178D000313F0
:1002D000560803178F008D0A03198F0A03131D296F
:1002E000031703130800CE01A00A2008213C0318BD
:1002F000D3292308FC3E03189629043EDA29FE3050
:1003000083168600831286009629FD3083168600A8
:10031000831286009629FB3083168600831286009E
:100320009629F7308316860083128600211CA229A5
:100330000608F039F03C031DA12921102208CE0047
:10034000A201D2290608F039F03C0319CD2906088C
:100350001039031DAD29CF01C12906082039031D1D
:10036000B4290130CF00C12906084039031DBB293B
:100370000230CF00C12906088039031DC12903308E
:10038000CF004F0DF700F70DFC30F7057708230776
:100390000420F800A2002114D229A30A2308043C57
:1003A0000319A301A001FF308316860083124E08B3
:1003B000F80008000A148A100A1182077F2985298B
:1003C0008B29912961080319522AE900650803194C
:1003D000522AE9070318F3297F30E902031C522A45
:1003E0000319522AF7298130E9070318522A6908AC
:1003F000F700F801F901FA016208ED00ED17630852
:10040000EC006408EB001830E900EA016B1C202ABC
:100410006808FA07031C122AF90A031D122AF80AAF
:100420000319EA176708F907031C192AF80A0319C0
:10043000EA176608E300E3176308F8070318EA17EA
:10044000EA0DF80CF90CFA0CED0CEC0CEB0C0310AB
:10045000E90B052A0130F7070318522AF81B372A3F
:10046000ED0DFA0DF90DF80DF7030319522AED1FE2
:10047000482AFA0A031D482AF90A031D482AF80ADD
:10048000031D482AF80CF90CFA0CF70A0319522A32
:100490006208EA006608EA06EA1F502AF817562A98
:1004A000F813562AF701F801F901FA010800831838
:1004B0005C2A693084008313F701F801F901FA011D
:1004C000E901EA01EB01EC016808670466046504D0
:1004D00003199A2A2030ED000310E10DE20DE30D1F
:1004E000E40DE90DEA0DEB0DEC0D68086C02031D3F
:1004F000832A67086B02031D832A66086A02031DAC
:10050000832A65086902031C942A6508E9026608C3
:10051000031C660FEA026708031C670FEB026808FA
:10052000031C680FEC020314F70DF80DF90DFA0D1A
:10053000ED0B6C2A69088000840A6A088000840A2E
:100540006B088000840A6C08800008000408D90049
:100550005808DB000319C52A5708E4005608E300D1
:100560005508E2005408E100E801E7012030E60008
:100570008230E500E2217A08D7007908D6007808B1
:10058000D5007708D400DB0BAC2A5708E4005608E6
:10059000E3005508E2005408E1006108B63CE100C0
:1005A000FA016208E500E2170310E20CE30CE40C28
:1005B000FA0CF90CF80CF70CE10BD42AE51FEB2A26
:1005C000F709F809F909FA09F70A0319F80A0319EA
:1005D000F90A0319FA0A7A08D7007908D6007808C8
:1005E000D5007708D400D71F022BD903D916D40918
:1005F000D509D609D709D40A0319D50A0319D60A89
:100600000319D70A3B30E0009A30DF00CA30DE0021
:10061000DD010A30DB0058080319D90A831454306D
:10062000840083135708E4005608E3005508E200ED
:100630005408E1006008E8005F08E7005E08E60093
:100640005D08E50057227808F708031D3A2B580A81
:100650005B0203193A2B590803193C2B0F395B0233
:100660000319342B03186C2BD91B6C2B591B3C2BF7
:100670002030682B2030D905D91E4A2BD9125808B2
:10068000031DD9037708D9002D30E100F120590866
:10069000F700D90158085B02031D582B7708D900D1
:1006A0002E30E100F1205908F7002030D905003044
:1006B0003030D91E682BD9125808031DD90377088A
:1006C000D9002D30E100F1205908F700D901303070
:1006D000F7077708E100F12083106008E4005F0865
:1006E000E3005E08E2005D08E100E801E701E601E1
:1006F0000A30E50057227A08E0007908DF00780820
:10070000DE007708DD00DB0B0E2B08001830031726
:100710008D0000308F0003131D215208E2005308A2
:10072000E300DF20893084005108D7005008D6004C
:100730004F08D5004E08D4000230D800A62202305F
:10074000D400FA30E2003720D40BA12B080080300F
:100750008318D706DC01DD015308DB005708DB06F0
:1007600052080319972CDA00F70056080319A02C39
:10077000DA0203193C2C031CFA2B5708E000E0179F
:100780005808DF005908DE00DD010310E00CDF0C23
:10079000DE0CDD0CDA0BC42BDB1FD12B5C14B42C6C
:1007A0005C105A105C16553084008313C92C5C12FF
:1007B000DB1BE42B5A1CEF2BE00CDF0CDE0CDD0CFA
:1007C000F70A0319AF2CEF2BE01BF22B0310DD0D02
:1007D000DE0DDF0DE00DF7030319AF2CE42B5C17E2
:1007E0005C2C5C135308DB00DB1FF82BE017A82CF4
:1007F000E013A82C5608DA00F7005208DA02530872
:10080000E000E0175408DF005508DE00DD010310AA
:10081000E00CDF0CDE0CDD0CDA0B062CDB1F132CDE
:10082000DC14B42CDC105A10DC165930840083130D
:10083000C92CDC12DB1B262C5A1C312CE00CDF0CE3
:10084000DE0CDD0CF70A0319AF2C312CE01B342C25
:100850000310DD0DDE0DDF0DE00DF7030319AF2CE6
:10086000262CDC175C2CDC135708DB00DB1F3A2C32
:10087000E017A82CE013A82C5708E000E017580850
:10088000DF005908DE00DB1F492CE0135C15B42C97
:100890005C11DD015A10553084008313C92CDB1B19
:1008A000722C5308DB005A1C5C2CE00CDF0CDE0CB5
:1008B000DD0CF70A0319AF2CDD1F6D2CDE0A031DBA
:1008C0006D2CDF0A031D6D2CE00A031D6D2CE00C5E
:1008D000DF0CDE0CF70A0319AF2C5C1BF12BDC1BC1
:1008E000332C912C8030E006E01F7A2CB42C570872
:1008F000DB00872C5308DB00E008031D872CDF0892
:10090000031D872CDE08031D872CF701A82CE01B94
:10091000912C0310DD0DDE0DDF0DE00DF70B872CA4
:10092000AF2CDB1F952CE017A82CE013A82C560841
:10093000F7005708E0005808DF005908DE00A82C2F
:100940005208F7005308E0005408DF005508DE00A5
:100950006008F8005F08F9005E08FA00E72CF7016C
:10096000F801F901FA01E72CDD01DE09DF09E009F0
:10097000DD09DD0A031DC22CDE0A031DC22CDF0ABD
:100980000319E00A5C18D02BDC18122C5C19482CD7
:10099000772C0008DE07031CD32CDF0A031DD32CA1
:1009A000E00A03195A1484030008DF07031CDB2C38
:1009B000E00A03195A1484030008801F803AE007F4
:1009C00003185A145C1AD72BDC1A192C4F2C080068
:1009D000CA01C901C801C7010130CC00CD01732192
:1009E0007808CB004B08840083134C1883178008C9
:1009F00003190C2DCF010408CE004F10831B4F1498
:100A00000008E100F1204E08840083134F1883177B
:100A1000840A0319850AF72CCB080319172D4B08F4
:100A2000393C0318172D4B082F3C03188C2D02302E
:100A3000F700F70B192D1C2D000073217808CB004F
:100A4000CB080319872D4B08393C031C872D4B0815
:100A50002F3C0318872D4C08E2000230E300DF2012
:100A60004B08E100F12030304B02CD004A08E40091
:100A70004908E3004808E2004708E100E801E7010F
:100A80002030E6008230E500E2217A08D1007908C2
:100A9000D0007808CF007708CE00D3014D08D200EF
:100AA0008E30F7005308F8005208F900FA01F808F0
:100AB000031D642D7908F800F9010830F702F808E1
:100AC000031D642DF7016C2D0310F81B6B2DF90D20
:100AD000F80DF703642DF81383105108D500500862
:100AE000D4004F08D3004E08D2007A08D900790804
:100AF000D8007808D7007708D600A7237A08CA005C
:100B00007908C9007808C8007708C700CC0A4B08E4
:100B1000233C03198C2D0C2D4A08D1004908D00024
:100B20004808CF004708CE000130D2000230D30081
:100B300086236430E2003720193003178D0000301F
:100B40008F0003131D214708F7004808F8004908E3
:100B5000F9004A08FA0008004808CF004C08CF0600
:100B6000CF1FB72D03110310C81B0314EA2D48082B
:100B7000CF004B08D0004708D0020319C52DCF1F66
:100B8000EA2D0308013A8300EA2D4C08D0004808FA
:100B9000D0020319D12DCF1FEA2D0308013A83009B
:100BA000EA2D4D08D0004908D0020319DD2DCF1FD2
:100BB000EA2D0308013A8300EA2D4E08D0004A08C6
:100BC000D0020319E92DCF1FEA2D0308013A830053
:100BD000EA2D031008004E08F8014D020318F32D0A
:100BE0004D08F700FF2DF7010830CF00CD0DF70DB0
:100BF0004E0877020318F700F80DCF0BF62D08000A
:100C00002030481E3030C9004708F700C71F102E9B
:100C1000F709F70A7708C7002D30C900C81748142C
:100C20004708CD006430CE00EB257708C700303090
:100C30007807CA004708CD000A30CE00EB253030D7
:100C40007707CC0030307807CB004908F700303008
:100C50004A0203192F2EC814C81B4815432E4908F1
:100C6000CA002030C90030304B0203193B2E481413
:100C7000C81BC814432E031D4814031D432E4A08E5
:100C8000CB002030CA0048194A2EC8184D2E4818EB
:100C9000502E532E4908E100F1204A08E100F120CE
:100CA0004B08E100F1204C08E100F12008000308A6
:100CB0001F39830083161F149F141F159F11831360
:100CC0008312A0012110A201A301A401A501A60184
:100CD00000308316880083129E28DC288316811337
:100CE000FF308600850083128501050886000518FF
:100CF000C62E0830E2000130E300DF201A3003176F
:100D00008D0000308F0003131D210130E2000230FE
:100D1000E300DF201D3003178D0000308F00031328
:100D20001D210430A700FA30E2003720A70B932ED4
:100D30000130E2000230E300DF20253003178D0090
:100D400000308F0003131D210430A700FA30E200A9
:100D50003720A70BA62E0130E2000230E300DF208F
:100D60002D3003178D0000308F0003131D21043038
:100D7000A700FA30E2003720A70BB92E3530031751
:100D80008D0000308F0003131D21772E732178080A
:100D9000A600A608031DD62E0230F700F70BCE2EB4
:100DA000D12E000073217808A600C92E3630031713
:100DB0008D0000308F0003131D212608A7008A151F
:060DC00000288A11630007
:10100000AB01AA01A901A801AF01AE01AD01AC017C
:10101000B301B201B101B001B701B601B501B4012C
:101020000830E2000130E3008A11DF208A1527082A
:10103000E1008A11F1208A150430C700FA30E2007D
:101040008A1137208A15C70B1E282708303A031942
:101050003928013A03196728033A0319AF29013ADD
:101060000319502A073A0319972A013A0319722BD8
:10107000342CBB01BA01B9017F30B8003B08D10064
:101080003A08D0003908CF003808CE000130D2002D
:101090000230D3008A1186238A15BC013C080F3C1C
:1010A000031C662801303C07C7003B08D1003A0802
:1010B000D0003908CF003808CE004708D2000230EF
:1010C000D3008A1186238A15BC0A4E28412C8A1126
:1010D000E8248A157A08AF007908AE007808AD00D8
:1010E0007708AC008A11E8248A157A08B3007908D9
:1010F000B2007808B1007708B0008A11E8248A1598
:101100007A08B7007908B6007808B5007708B40007
:1011100083102F08D5002E08D4002D08D3002C08EA
:10112000D2003308D9003208D8003108D70030087F
:10113000D6008A11A7238A157A08CA007908C9003F
:101140007808C8007708C70083104A08D500490806
:10115000D4004808D3004708D2003708D900360821
:10116000D8003508D7003408D6008A11A7238A157D
:101170007A08CA007908C9007808C8007708C7004B
:101180004A08CE004908CD004808CC004708CB00EB
:10119000D201D1014030D0008030CF004B0803197C
:1011A0009329D7004F0803199329D702031CDD2880
:1011B0007F30D70703189329E3288130D702031C17
:1011C0009329031993295708F700F801F901FA0147
:1011D000D6014C08D500D5174D08D4004E08D300D1
:1011E0001930D7005208D302031806290130D4025F
:1011F00003180629D50203180629D6020318062962
:10120000D60AD50AD40A5208D30738295108D4027D
:10121000031821290130D50203182129D602031809
:101220002129D60AD50A5108D4075208D307031C2E
:101230003829D40A031D3829D50A031D3829D60AAE
:10124000382950088038D502031837290130D602D2
:1012500003183729D60A50088038D5075108D40713
:10126000031C1529D50A031D1529D60A15297A1438
:10127000D70B3B2946290310D30DD40DD50DD60D20
:101280000310FA0DF90DF80DD80DF228581C4E294F
:101290000310F80CF90CFA0CD80C5129F7030319B8
:1012A0009329D81B7A290310D30DD40DD50DD60D53
:1012B0005208D302031866290130D40203186629A4
:1012C000D50203186629D602031C89295108D402C5
:1012D000031871290130D50203187129D602031CA5
:1012E000892950088038D50203187A290130D6029E
:1012F000031C8929FA0A031D8929F90A031D892972
:10130000F80A031D8929F70A03199329F80CF90C27
:10131000FA0C4C08D7005008D706D71F9129F817A8
:101320009729F8139729F701F801F901FA017A08CA
:10133000AB007908AA007808A9007708A8002B0854
:10134000D1002A08D0002908CF002808CE0001309B
:10135000D2000230D3008A1186238A15412C8A11CB
:10136000E8248A157A08AF007908AE007808AD0045
:101370007708AC008A11E8248A157A08B300790846
:10138000B2007808B1007708B0008A11E8248A1505
:101390007A08B7007908B6007808B5007708B40075
:1013A000D101D001CF01CE010130D2000230D300F3
:1013B0008A1186238A153308CA003208C900310809
:1013C000C8003008C7002F08CE002E08CD002D0819
:1013D000CC002C08CB008A11AC258A150318F22901
:1013E000031D192A3708CA003608C9003508C80085
:1013F0003408C7002F08CE002E08CD002D08CC00E1
:101400002C08CB008A11AC258A150318092A031D64
:10141000192A2F08D1002E08D0002D08CF002C0843
:10142000CE000130D2000230D3008A1186238A1503
:101430004F2A3708CA003608C9003508C8003408E2
:10144000C7003308CE003208CD003108CC00300888
:10145000CB008A11AC258A150318302A031D402AB7
:101460003308D1003208D0003108CF003008CE0058
:101470000130D2000230D3008A1186238A154F2A08
:101480003708D1003608D0003508CF003408CE0028
:101490000130D2000230D3008A1186238A15412CF4
:1014A0003030E1008A11F1208A153030E1008A11D4
:1014B000F1208A150230C700FA30E2008A11372085
:1014C0008A15C70B5C2ABD013D08023C031C962A05
:1014D0000130E2000230E3008A11DF208A153D0866
:1014E000C7001830C8008A1100268A15BE013E08C0
:1014F000093C031C942A0230E200E3008A11DF2039
:101500008A153E08C7001830C8008A1100268A15BF
:101510000230C700C830E2008A1137208A15C70B95
:101520008A2A0230BE07772ABD0A642A412C8A1112
:10153000E8248A157A08AF007908AE007808AD0073
:101540007708AC008A11E8248A157A08B300790874
:10155000B2007808B1007708B0000130E200023034
:10156000E3008A11DF208A152F08CA002E08C9005F
:101570002D08C8002C08C7003308CE003208CD0063
:101580003108CC003008CB008A11AC258A15031D28
:10159000D92A2F08D1002E08D0002D08CF002C0802
:1015A000CE000130D2000230D3008A1186238A1582
:1015B000412C3308CA003208C9003108C80030087D
:1015C000C7002F08CE002E08CD002D08CC002C0817
:1015D000CB008A11AC258A150318F02A031D312B84
:1015E0003308CA003208C9003108C8003008C700F3
:1015F0002F08CE002E08CD002D08CC002C08CB00E3
:101600008A11AC258A150318072B031D302B2F08D0
:10161000D1002E08D0002D08CF002C08CE000130BC
:10162000D2000230D3008A1186238A1583142F0832
:10163000D5002E08D4002D08D3002C08D200D901E3
:10164000D801D7017F30D6008A11A7238A157A08DE
:10165000AF007908AE007808AD007708AC00F02A3A
:10166000712B2F08CA002E08C9002D08C8002C08AD
:10167000C7003308CE003208CD003108CC00300856
:10168000CB008A11AC258A150318482B031D712B3A
:101690002F08D1002E08D0002D08CF002C08CE0036
:1016A0000130D2000230D3008A1186238A158310BC
:1016B0002F08D5002E08D4002D08D3002C08D20006
:1016C000D901D801D7017F30D6008A11A7238A1506
:1016D0007A08AF007908AE007808AD007708AC0052
:1016E000312B412C8A11E8248A157A08AF00790839
:1016F000AE007808AD007708AC008A11E8248A159E
:101700007A08B3007908B2007808B1007708B00011
:101710000130E2000230E3008A11DF208A152F0831
:10172000E4002E08E3002D08E2002C08E1002F0859
:10173000E8002E08E7002D08E6002C08E5008A11D5
:10174000E2218A157A08C2007908C1007808C00031
:101750007708BF003308E4003208E3003108E200F4
:101760003008E100E801E701E6018030E5008A1178
:10177000E2218A157A08C6007908C5007808C400F5
:101780007708C3004208CA004108C9004008C800E1
:101790003F08C7004608CE004508CD004408CC00ED
:1017A0004308CB008A11AC258A15031C082C83142E
:1017B0004608D5004508D4004408D3004308D200A9
:1017C0004208D9004108D8004008D7003F08D60099
:1017D0008A11A7238A157A08CA007908C9007808EF
:1017E000C8007708C7002D30E1008A11F1208A1562
:1017F000893084004A08D7004908D6004808D50037
:101800004708D4000230D8008A11A6228A15332C4A
:1018100083144208D5004108D4004008D3003F0893
:10182000D2004608D9004508D8004408D70043082C
:10183000D6008A11A7238A157A08CA007908C90038
:101840007808C8007708C7004A08D1004908D000C6
:101850004808CF004708CE000130D2000230D30044
:101860008A1186238A15412CD101D0017F30CF0007
:101870008630CE000130D2000230D3008A11862398
:081880008A158A110A12E12EFB
:02400E00713F00
:00000001FF
;PIC16F877
;CRC=6D07  CREATED="06-mar.-21 23:14"
