:1000000000308A0098280000FF00030E8301A10041
:100010000A08A0008A010408A2007708A300780853
:10002000A4007908A5007A08A600831383128B1E0A
:100030001B280B1930280B1E1F288B183328220869
:1000400084002308F7002408F8002508F900260892
:10005000FA0020088A00210E8300FF0E7F0E09009F
:100060008A110A1255288A110A1282280A108A1047
:100070000A11820774345C343834773400347C34A9
:100080003E347934373400345E34303477340A10F7
:100090008A100A1182073F3406345B344F346634C9
:1000A0006D347D3407347F346F34A803DC30810035
:1000B000A808031D69280A30A8000230A9072908EA
:1000C000023C031908142908043C031D6928081080
:1000D000A9010B118A110A121F282E3084008313E4
:1000E0000008031981280130F800F701F70B762882
:1000F000F80B75284A30F700F70B7C287F28800B17
:1001000073280800AC012C080C3C031C94282C0814
:100110003620F80087000230AD00FA30AE006D20C6
:10012000AD0B8D28AC0A83288B108A110A121F2868
:1001300003081F39830083161F149F141F159F1176
:1001400083138312AA01013083168600850088017B
:100150000808870083128701070888000A30A80072
:10016000A901DC30810083160108C03907388100FD
:1001700083128B160B16C0308B042A084720F80018
:100180008700AA0A2A080A3C0319AA01A7018B1BA7
:10019000A7178B13C830AE006D20A71B8B17BD2887
:0201A0006300FA
:02400E00713F00
:00000001FF
;PIC16F877
;CRC=E974  CREATED="07-mar.-21 01:40"
