:1000000000308A00FB2800000A108A100A118207BB
:100010003134323433344134343435343634423488
:1000200037343834393443342A3430342334443484
:100030008A110A121B293430840083130008031923
:100040002F280130F800F701F70B2428F80B23289C
:100050004A30F700F70B2A282D28800B21280800AA
:10006000B401A00A2008213C031890282308FC3E74
:1000700003185328043E9728FE3083168600831207
:1000800086005328FD30831686008312860053288D
:10009000FB3083168600831286005328F7308316C0
:1000A000860083128600211C5F280608F039F03C88
:1000B000031D5E2821102208B400A2018F28060823
:1000C000F039F03C03198A2806081039031D6A2804
:1000D000B5017E2806082039031D71280130B500BE
:1000E0007E2806084039031D78280230B5007E2896
:1000F00006088039031D7E280330B500350DF70052
:10010000F70DFC30F705770823070420F800A2005C
:1001100021148F28A30A2308043C0319A301A0017A
:10012000FF308316860083123408F80008000A1096
:100130008A100A1182073C28422848284E28B30119
:1001400030207808B300B308031DB0280230F70050
:10015000F70BA828AB28000030207808B300A328AC
:100160003308F8008A110A1245293408FA003308C6
:10017000840083137A1883170008B7003608FA0042
:100180003508840083137A18831700083702031D8B
:10019000E0283408FA003308840083137A188317A0
:1001A0008008031DD6280030F800F8283408FA002B
:1001B0003308B30A0319B40AB50A0319B60AB528F5
:1001C0003408FA00330884008313341883170008B6
:1001D000B7003608FA0035088400831336188317F1
:1001E000000837020318F628FF30F7280130F8001E
:1001F0008A110A125E2903081F39830083161F140F
:100200009F141F159F1183138312A0012110A201B7
:10021000A301A401A5013030A700A800A900AA00ED
:10022000AB00AC013230AD00AE003530AF00B000F5
:10023000B101B201182883168113FF3086008500B2
:1002400087018312850105088600051839290430C5
:10025000B300FA30B4001B20B30B2929FF3087000C
:100260000230B300FA30B4001B20B30B32298701EF
:1002700025290230B300FA30B4001B20B30B3B2910
:100280003208033C031C56299F287808A600273013
:1002900032078400831326088000B20A0230B300BC
:1002A000FA30B4001B20B30B50294029AB01B40134
:1002B0002D30B300B6012730B500B528F808031D6E
:0A02C00063298717642907146300FF
:02400E00713F00
:00000001FF
;PIC16F877
;CRC=20B0  CREATED="03-mar.-21 11:41"
