:1000000002308A006F2A0000FF00030E8301A10066
:100010000A08A0008A010408A2007708A300780853
:10002000A4007908A5007A08A60003170D08031399
:10003000A70003170F080313A80003170C080313E6
:10004000A90003170E080313AA00831383128C3030
:100050008400801E2D288C1A4E2822088400230834
:10006000F7002408F8002508F9002608FA002708F8
:1000700003178D000313280803178F0003132908A3
:1000800003178C0003132A0803178E00031320089C
:100090008A00210E8300FF0E7F0E09008A110A12CA
:1000A00051288C1E51281A08AD008C128A110A1290
:1000B0002D283A2AE536701DA01264104300D03076
:1000C000F337A0326C10EC34ED34F4320000C2305F
:1000D000EA37A0326C10EC34ED34F43200003530E5
:1000E000840083130008031983280130F800F70106
:1000F000F70B7828F80B77284A30F700F70B7E28A3
:100100008128800B752808003C0EF039F7000F306D
:10011000080577048800000008148E2808100800DD
:100120000808F700080E0F39F800080083160810B9
:1001300088100811831288100F3083160805F038D4
:100140008800831208150000081400009020780829
:10015000BC00081000000814000090207808BB00C4
:1001600008100F3083160805880083123C0EF70034
:10017000F030F70577083B04F8007808BB00BB1B9C
:100180009C28391C881039188814000008110000B8
:1001900008103A0EBB000F30BB053B08BC008420A2
:1001A0003A080F39BB00BC00842008002830AF009B
:1001B0000C30B0000130B1000630B20008108810D9
:1001C00008110F30831608058800081088100811E0
:1001D0000F308312B5006F200130AE002E08033CB3
:1001E000031CFA280330BC0084200530B5006F20C2
:1001F000AE0AEE280230BC0084200530B5006F2026
:10020000AE012E08033C031C11292F302E07840059
:1002100083130008B300B9013308BA009620AE0A70
:1002200001298A110A12862A360B17291A29403009
:10023000B7001B29B70101303502B70737088038EE
:10024000B800B9013808BA00962008003408073A07
:10025000031934290B3A03193929063A031941299C
:10026000023A031947294C290130B500B600142180
:100270005129B9010130BA0096200230B5006F2033
:1002800051290130B5000230B60014215129B901BD
:100290001030BA00962051290130B9003408BA0054
:1002A000962008000B08AF008B13831603178C17DA
:1002B0000C140000000083120313AF1B8B170318EC
:1002C000892903170C087F390313AF0003170D08A2
:1002D0000313B00003170F080313B1002F08B40075
:1002E0002621300803178D000313310803178F00F0
:1002F00003130B08B2008B13831603178C170C140F
:100300000000000083120313B21B8B17AE0B892968
:10031000A82903170C0D0E0D7F390313AF00031727
:100320000D080313B00003170F080313B1002F08C3
:10033000B4002621300803178D000313310803177A
:100340008F008D0A03198F0A03100313AE0B522975
:100350008A110A129D2A3508F80134020318B329BC
:100360003408F700BF29F7010830B600B40DF70DC7
:10037000350877020318F700F80DB60BB629080008
:1003800020302F1E3030B0002E08F700AE1FD029CD
:10039000F709F70A7708AE002D30B000AF172F1419
:1003A0002E08B4006430B500AB217708AE003030C1
:1003B0007807B1002E08B4000A30B500AB21303008
:1003C0007707B30030307807B2003008F7003030DC
:1003D00031020319EF29AF14AF1B2F15032A300880
:1003E000B1002030B000303032020319FB292F1445
:1003F000AF1BAF14032A031D2F14031D032A31085A
:10040000B2002030B1002F190A2AAF180D2A2F1878
:10041000102A132A3008B40026213108B4002621FE
:100420003208B40026213308B40026218A110A12AA
:10043000A22A0B08AE008B13831603178C170C141B
:100440000000000083120313AE1B8B1703170C0868
:100450007F3903196D2A0313AE0003170D08031328
:10046000AF0003170F080313B0002E08B4002621B5
:100470002F0803178D000313300803178F00031391
:100480000B08B1008B13831603178C170C14000094
:10049000000083120313B11B8B1703170C0D0E0DF5
:1004A0007F3903196D2A0313AE0003170D080313D8
:1004B000AF0003170F080313B0002E08B400262165
:1004C0002F0803178D000313300803178F008D0AC0
:1004D00003198F0A0313192A0317031308000308CB
:1004E0001F398300003083169900A23098009030A5
:1004F0008312980083161F149F141F159F11073035
:100500009C0083138312AB01AC01D62883168C1692
:10051000C03083128B040C30B40026210230B500A9
:100520000130B6001421593003178D0000308F00C0
:10053000031007300313AE0052292D08AE00183007
:10054000AF00C0292030B40026214330B40026215A
:100550000130B5000230B60014212D08193C0318F3
:10056000B92A5F3003178D0000308F000313192262
:10057000C02A673003178D0000308F000313192243
:0A0580006430B5006F208B2A630081
:02400E00713F00
:00000001FF
;PIC16F877A
;CRC=E14D  CREATED="09-mar.-21 11:46"
