:1000000001308A00912900002F30840083130008FA
:10001000031918280130F800F701F70B0D28F80B29
:100020000C284A30F700F70B13281628800B0A28F3
:1000300008002D0887000230AE00FA30AF0004201F
:10004000AE0B1D280800F701F8012E0803102F1829
:10005000F707F70CF80CAF18F707F70CF80C2F1987
:10006000F707F70CF80CAF19F707F70CF80C2F1A75
:10007000F707F70CF80CAF1AF707F70CF80C2F1B63
:10008000F707F70CF80CAF1BF707F70CF80C080094
:10009000A301A401A501A601220803195F28013AC2
:1000A00003197128033A0319BA28013A0319FB28E6
:1000B000073A03190D29013A031947298B290530FD
:1000C000A7002708AD001920A80128080F3C031C31
:1000D0007028270CA70C2708AD001920A80A65284E
:1000E0008E290518772806088700A4007128023099
:1000F000AD00FA30AF000420AD0B79280518842834
:1001000006088700A5007E280230AD00FA30AF0057
:100110000420AD0B86280518912806088700A60044
:100120008B280230AD00FA30AF000420AD0B9328CD
:10013000250824072607AE002E08AF000330B000C4
:100140003008F8012F020318A8282F08F700B42858
:10015000F7010830B100AF0DF70D30087702031832
:10016000F700F80DB10BAB287808A3002308AD0009
:1001700019208E290518C02806088700A400BA286F
:100180000230AD00FA30AF000420AD0BC2280518D4
:10019000CD2806088700A500C7280230AD00FA3038
:1001A000AF000420AD0BCF280518DA280608870019
:1001B000A600D4280230AD00FA30AF000420AD0B09
:1001C000DC28AD01192025082402031CEF2826088D
:1001D0002402031CEF282408AD001920FA28260861
:1001E0002502031CF7282508AD001920FA28260847
:1001F000AD0019208E29A9012908903C031C0C2967
:10020000290887000230AD009630AF000420AD0B06
:1002100004290230A907FC288E290518132906088D
:100220008700A4000D290230AD00FA30AF00042091
:10023000AD0B15290518202906088700A5001A29E5
:100240000230AD00FA30AF000420AD0B22292508A2
:100250002402031D2F292408AD0019208E2924080B
:10026000250203183D2925082402031C3C292408E3
:10027000AD001920A4033329462924082502031CB4
:1002800046292408AD001920A40A3D298E29051805
:100290004D2906088700A40047290230AD00FA3036
:1002A000AF000420AD0B4F2905185A290608870016
:1002B000A50054290230AD00FA30AF000420AD0B88
:1002C0005C29AA012408AB002508AC002B08AE006D
:1002D0002B08AF00232003102C0D7802AA002B0856
:1002E000AE002B08AF0023207808AD0003102C0DC2
:1002F0002D020318872903102C0DAD002B08AE002A
:100300002B08AF00232078082D02AA0008142A0821
:10031000AD0019208E29FF30AD0019208A110A1274
:10032000D32903081F39830083161F149F141F1538
:100330009F1183138312A101FF308316860085006D
:100340008801080887008312880108088500860054
:100350000518BC290230A200FA30AF000420A20B1D
:10036000AC29FF3087000430A200FA30AF0004202F
:10037000A20BB5298701A8290230A200FA30AF00EC
:100380000420A20BBE290518C92906088700A10070
:10039000C3290230AD00FA30AF000420AD0BCB29E9
:0803A0002108A20048286300B7
:02400E00713F00
:00000001FF
;PIC16F877
;CRC=ADE4  CREATED="06-mar.-21 01:31"
